{
  "_format": "hh-sol-artifact-1",
  "contractName": "Voter",
  "sourceName": "contracts/Voter.sol",
  "abi": [
    {
      "inputs": [
        {
          "internalType": "string[]",
          "name": "initialCandidates",
          "type": "string[]"
        }
      ],
      "stateMutability": "nonpayable",
      "type": "constructor"
    },
    {
      "inputs": [
        {
          "internalType": "uint256",
          "name": "",
          "type": "uint256"
        }
      ],
      "name": "candidatesList",
      "outputs": [
        {
          "internalType": "string",
          "name": "",
          "type": "string"
        }
      ],
      "stateMutability": "view",
      "type": "function"
    },
    {
      "inputs": [],
      "name": "getLiveTally",
      "outputs": [
        {
          "internalType": "string[]",
          "name": "",
          "type": "string[]"
        },
        {
          "internalType": "uint256[]",
          "name": "",
          "type": "uint256[]"
        }
      ],
      "stateMutability": "view",
      "type": "function"
    },
    {
      "inputs": [
        {
          "internalType": "string[]",
          "name": "candidates",
          "type": "string[]"
        },
        {
          "internalType": "uint256[]",
          "name": "ranks",
          "type": "uint256[]"
        }
      ],
      "name": "submitVotes",
      "outputs": [],
      "stateMutability": "nonpayable",
      "type": "function"
    },
    {
      "inputs": [
        {
          "internalType": "string",
          "name": "",
          "type": "string"
        }
      ],
      "name": "tally",
      "outputs": [
        {
          "internalType": "uint256",
          "name": "",
          "type": "uint256"
        }
      ],
      "stateMutability": "view",
      "type": "function"
    },
    {
      "inputs": [
        {
          "internalType": "address",
          "name": "",
          "type": "address"
        },
        {
          "internalType": "uint256",
          "name": "",
          "type": "uint256"
        }
      ],
      "name": "votes",
      "outputs": [
        {
          "internalType": "string",
          "name": "candidate",
          "type": "string"
        },
        {
          "internalType": "uint256",
          "name": "rank",
          "type": "uint256"
        }
      ],
      "stateMutability": "view",
      "type": "function"
    }
  ],
  "bytecode": "0x60806040523480156200001157600080fd5b5060405162001b5b38038062001b5b8339818101604052810190620000379190620003d3565b80600290805190602001906200004f92919062000057565b505062000756565b828054828255906000526020600020908101928215620000a4579160200282015b82811115620000a35782518290816200009291906200066f565b509160200191906001019062000078565b5b509050620000b39190620000b7565b5090565b5b80821115620000db5760008181620000d19190620000df565b50600101620000b8565b5090565b508054620000ed906200045e565b6000825580601f1062000101575062000122565b601f01602090049060005260206000209081019062000121919062000125565b5b50565b5b808211156200014057600081600090555060010162000126565b5090565b6000604051905090565b600080fd5b600080fd5b600080fd5b6000601f19601f8301169050919050565b7f4e487b7100000000000000000000000000000000000000000000000000000000600052604160045260246000fd5b620001a8826200015d565b810181811067ffffffffffffffff82111715620001ca57620001c96200016e565b5b80604052505050565b6000620001df62000144565b9050620001ed82826200019d565b919050565b600067ffffffffffffffff82111562000210576200020f6200016e565b5b602082029050602081019050919050565b600080fd5b600080fd5b600067ffffffffffffffff8211156200024957620002486200016e565b5b62000254826200015d565b9050602081019050919050565b60005b838110156200028157808201518184015260208101905062000264565b60008484015250505050565b6000620002a46200029e846200022b565b620001d3565b905082815260208101848484011115620002c357620002c262000226565b5b620002d084828562000261565b509392505050565b600082601f830112620002f057620002ef62000158565b5b8151620003028482602086016200028d565b91505092915050565b6000620003226200031c84620001f2565b620001d3565b9050808382526020820190506020840283018581111562000348576200034762000221565b5b835b818110156200039657805167ffffffffffffffff81111562000371576200037062000158565b5b808601620003808982620002d8565b855260208501945050506020810190506200034a565b5050509392505050565b600082601f830112620003b857620003b762000158565b5b8151620003ca8482602086016200030b565b91505092915050565b600060208284031215620003ec57620003eb6200014e565b5b600082015167ffffffffffffffff8111156200040d576200040c62000153565b5b6200041b84828501620003a0565b91505092915050565b600081519050919050565b7f4e487b7100000000000000000000000000000000000000000000000000000000600052602260045260246000fd5b600060028204905060018216806200047757607f821691505b6020821081036200048d576200048c6200042f565b5b50919050565b60008190508160005260206000209050919050565b60006020601f8301049050919050565b600082821b905092915050565b600060088302620004f77fffffffffffffffffffffffffffffffffffffffffffffffffffffffffffffffff82620004b8565b620005038683620004b8565b95508019841693508086168417925050509392505050565b6000819050919050565b6000819050919050565b6000620005506200054a62000544846200051b565b62000525565b6200051b565b9050919050565b6000819050919050565b6200056c836200052f565b620005846200057b8262000557565b848454620004c5565b825550505050565b600090565b6200059b6200058c565b620005a881848462000561565b505050565b5b81811015620005d057620005c460008262000591565b600181019050620005ae565b5050565b601f8211156200061f57620005e98162000493565b620005f484620004a8565b8101602085101562000604578190505b6200061c6200061385620004a8565b830182620005ad565b50505b505050565b600082821c905092915050565b6000620006446000198460080262000624565b1980831691505092915050565b60006200065f838362000631565b9150826002028217905092915050565b6200067a8262000424565b67ffffffffffffffff8111156200069657620006956200016e565b5b620006a282546200045e565b620006af828285620005d4565b600060209050601f831160018114620006e75760008415620006d2578287015190505b620006de858262000651565b8655506200074e565b601f198416620006f78662000493565b60005b828110156200072157848901518255600182019150602085019450602081019050620006fa565b868310156200074157848901516200073d601f89168262000631565b8355505b6001600288020188555050505b505050505050565b6113f580620007666000396000f3fe608060405234801561001057600080fd5b50600436106100575760003560e01c806334deb8161461005c578063484007801461008c5780634a090dfc146100ab5780639f2524ee146100c7578063df2d5ec7146100f8575b600080fd5b61007660048036038101906100719190610869565b610128565b60405161008391906108cb565b60405180910390f35b610094610156565b6040516100a2929190610ae5565b60405180910390f35b6100c560048036038101906100c09190610cf1565b610303565b005b6100e160048036038101906100dc9190610dc7565b6104ea565b6040516100ef929190610e51565b60405180910390f35b610112600480360381019061010d9190610e81565b6105b3565b60405161011f9190610eae565b60405180910390f35b6001818051602081018201805184825260208301602085012081835280955050505050506000915090505481565b606080600060028054905067ffffffffffffffff81111561017a5761017961073e565b5b6040519080825280602002602001820160405280156101a85781602001602082028036833780820191505090505b50905060005b600280549050811015610223576001600282815481106101d1576101d0610ed0565b5b906000526020600020016040516101e89190611002565b90815260200160405180910390205482828151811061020a57610209610ed0565b5b60200260200101818152505080806001019150506101ae565b5060028181805480602002602001604051908101604052809291908181526020016000905b828210156102f457838290600052602060002001805461026790610f2e565b80601f016020809104026020016040519081016040528092919081815260200182805461029390610f2e565b80156102e05780601f106102b5576101008083540402835291602001916102e0565b820191906000526020600020905b8154815290600101906020018083116102c357829003601f168201915b505050505081526020019060010190610248565b50505050915092509250509091565b8051825114610347576040517f08c379a000000000000000000000000000000000000000000000000000000000815260040161033e9061108b565b60405180910390fd5b6000803373ffffffffffffffffffffffffffffffffffffffff1673ffffffffffffffffffffffffffffffffffffffff1681526020019081526020016000206000610391919061065f565b60005b82518110156104e5576000803373ffffffffffffffffffffffffffffffffffffffff1673ffffffffffffffffffffffffffffffffffffffff16815260200190815260200160002060405180604001604052808584815181106103f9576103f8610ed0565b5b6020026020010151815260200184848151811061041957610418610ed0565b5b6020026020010151815250908060018154018082558091505060019003906000526020600020906002020160009091909190915060008201518160000190816104629190611242565b5060208201518160010155505081818151811061048257610481610ed0565b5b6020026020010151600184838151811061049f5761049e610ed0565b5b60200260200101516040516104b49190611345565b908152602001604051809103902060008282546104d1919061138b565b925050819055508080600101915050610394565b505050565b6000602052816000526040600020818154811061050657600080fd5b90600052602060002090600202016000915091505080600001805461052a90610f2e565b80601f016020809104026020016040519081016040528092919081815260200182805461055690610f2e565b80156105a35780601f10610578576101008083540402835291602001916105a3565b820191906000526020600020905b81548152906001019060200180831161058657829003601f168201915b5050505050908060010154905082565b600281815481106105c357600080fd5b9060005260206000200160009150905080546105de90610f2e565b80601f016020809104026020016040519081016040528092919081815260200182805461060a90610f2e565b80156106575780601f1061062c57610100808354040283529160200191610657565b820191906000526020600020905b81548152906001019060200180831161063a57829003601f168201915b505050505081565b50805460008255600202906000526020600020908101906106809190610683565b50565b5b808211156106ae576000808201600061069d91906106b2565b600182016000905550600201610684565b5090565b5080546106be90610f2e565b6000825580601f106106d057506106ef565b601f0160209004906000526020600020908101906106ee91906106f2565b5b50565b5b8082111561070b5760008160009055506001016106f3565b5090565b6000604051905090565b600080fd5b600080fd5b600080fd5b600080fd5b6000601f19601f8301169050919050565b7f4e487b7100000000000000000000000000000000000000000000000000000000600052604160045260246000fd5b6107768261072d565b810181811067ffffffffffffffff821117156107955761079461073e565b5b80604052505050565b60006107a861070f565b90506107b4828261076d565b919050565b600067ffffffffffffffff8211156107d4576107d361073e565b5b6107dd8261072d565b9050602081019050919050565b82818337600083830152505050565b600061080c610807846107b9565b61079e565b90508281526020810184848401111561082857610827610728565b5b6108338482856107ea565b509392505050565b600082601f8301126108505761084f610723565b5b81356108608482602086016107f9565b91505092915050565b60006020828403121561087f5761087e610719565b5b600082013567ffffffffffffffff81111561089d5761089c61071e565b5b6108a98482850161083b565b91505092915050565b6000819050919050565b6108c5816108b2565b82525050565b60006020820190506108e060008301846108bc565b92915050565b600081519050919050565b600082825260208201905092915050565b6000819050602082019050919050565b600081519050919050565b600082825260208201905092915050565b60005b8381101561094c578082015181840152602081019050610931565b60008484015250505050565b600061096382610912565b61096d818561091d565b935061097d81856020860161092e565b6109868161072d565b840191505092915050565b600061099d8383610958565b905092915050565b6000602082019050919050565b60006109bd826108e6565b6109c781856108f1565b9350836020820285016109d985610902565b8060005b85811015610a1557848403895281516109f68582610991565b9450610a01836109a5565b925060208a019950506001810190506109dd565b50829750879550505050505092915050565b600081519050919050565b600082825260208201905092915050565b6000819050602082019050919050565b610a5c816108b2565b82525050565b6000610a6e8383610a53565b60208301905092915050565b6000602082019050919050565b6000610a9282610a27565b610a9c8185610a32565b9350610aa783610a43565b8060005b83811015610ad8578151610abf8882610a62565b9750610aca83610a7a565b925050600181019050610aab565b5085935050505092915050565b60006040820190508181036000830152610aff81856109b2565b90508181036020830152610b138184610a87565b90509392505050565b600067ffffffffffffffff821115610b3757610b3661073e565b5b602082029050602081019050919050565b600080fd5b6000610b60610b5b84610b1c565b61079e565b90508083825260208201905060208402830185811115610b8357610b82610b48565b5b835b81811015610bca57803567ffffffffffffffff811115610ba857610ba7610723565b5b808601610bb5898261083b565b85526020850194505050602081019050610b85565b5050509392505050565b600082601f830112610be957610be8610723565b5b8135610bf9848260208601610b4d565b91505092915050565b600067ffffffffffffffff821115610c1d57610c1c61073e565b5b602082029050602081019050919050565b610c37816108b2565b8114610c4257600080fd5b50565b600081359050610c5481610c2e565b92915050565b6000610c6d610c6884610c02565b61079e565b90508083825260208201905060208402830185811115610c9057610c8f610b48565b5b835b81811015610cb95780610ca58882610c45565b845260208401935050602081019050610c92565b5050509392505050565b600082601f830112610cd857610cd7610723565b5b8135610ce8848260208601610c5a565b91505092915050565b60008060408385031215610d0857610d07610719565b5b600083013567ffffffffffffffff811115610d2657610d2561071e565b5b610d3285828601610bd4565b925050602083013567ffffffffffffffff811115610d5357610d5261071e565b5b610d5f85828601610cc3565b9150509250929050565b600073ffffffffffffffffffffffffffffffffffffffff82169050919050565b6000610d9482610d69565b9050919050565b610da481610d89565b8114610daf57600080fd5b50565b600081359050610dc181610d9b565b92915050565b60008060408385031215610dde57610ddd610719565b5b6000610dec85828601610db2565b9250506020610dfd85828601610c45565b9150509250929050565b600082825260208201905092915050565b6000610e2382610912565b610e2d8185610e07565b9350610e3d81856020860161092e565b610e468161072d565b840191505092915050565b60006040820190508181036000830152610e6b8185610e18565b9050610e7a60208301846108bc565b9392505050565b600060208284031215610e9757610e96610719565b5b6000610ea584828501610c45565b91505092915050565b60006020820190508181036000830152610ec88184610e18565b905092915050565b7f4e487b7100000000000000000000000000000000000000000000000000000000600052603260045260246000fd5b7f4e487b7100000000000000000000000000000000000000000000000000000000600052602260045260246000fd5b60006002820490506001821680610f4657607f821691505b602082108103610f5957610f58610eff565b5b50919050565b600081905092915050565b60008190508160005260206000209050919050565b60008154610f8c81610f2e565b610f968186610f5f565b94506001821660008114610fb15760018114610fc657610ff9565b60ff1983168652811515820286019350610ff9565b610fcf85610f6a565b60005b83811015610ff157815481890152600182019150602081019050610fd2565b838801955050505b50505092915050565b600061100e8284610f7f565b915081905092915050565b7f43616e6469646174657320616e642072616e6b73206c656e677468206d69736d60008201527f6174636800000000000000000000000000000000000000000000000000000000602082015250565b6000611075602483610e07565b915061108082611019565b604082019050919050565b600060208201905081810360008301526110a481611068565b9050919050565b60006020601f8301049050919050565b600082821b905092915050565b6000600883026110f87fffffffffffffffffffffffffffffffffffffffffffffffffffffffffffffffff826110bb565b61110286836110bb565b95508019841693508086168417925050509392505050565b6000819050919050565b600061113f61113a611135846108b2565b61111a565b6108b2565b9050919050565b6000819050919050565b61115983611124565b61116d61116582611146565b8484546110c8565b825550505050565b600090565b611182611175565b61118d818484611150565b505050565b5b818110156111b1576111a660008261117a565b600181019050611193565b5050565b601f8211156111f6576111c781610f6a565b6111d0846110ab565b810160208510156111df578190505b6111f36111eb856110ab565b830182611192565b50505b505050565b600082821c905092915050565b6000611219600019846008026111fb565b1980831691505092915050565b60006112328383611208565b9150826002028217905092915050565b61124b82610912565b67ffffffffffffffff8111156112645761126361073e565b5b61126e8254610f2e565b6112798282856111b5565b600060209050601f8311600181146112ac576000841561129a578287015190505b6112a48582611226565b86555061130c565b601f1984166112ba86610f6a565b60005b828110156112e2578489015182556001820191506020850194506020810190506112bd565b868310156112ff57848901516112fb601f891682611208565b8355505b6001600288020188555050505b505050505050565b600061131f82610912565b6113298185610f5f565b935061133981856020860161092e565b80840191505092915050565b60006113518284611314565b915081905092915050565b7f4e487b7100000000000000000000000000000000000000000000000000000000600052601160045260246000fd5b6000611396826108b2565b91506113a1836108b2565b92508282019050808211156113b9576113b861135c565b5b9291505056fea2646970667358221220ec3440140723bd274a849e1ce7a6b2dd1b68b0edeb2ada903f516524ffd14feb64736f6c63430008180033",
  "linkReferences": {},
  "deployedLinkReferences": {}
}